{
  "_format": "hh-sol-artifact-1",
  "contractName": "ReputationScore",
  "sourceName": "src/reputation/ReputationScore.sol",
  "abi": [
    {
      "inputs": [],
      "stateMutability": "nonpayable",
      "type": "constructor"
    },
    {
      "inputs": [],
      "name": "InvalidScoreChange",
      "type": "error"
    },
    {
      "inputs": [
        {
          "internalType": "address",
          "name": "owner",
          "type": "address"
        }
      ],
      "name": "OwnableInvalidOwner",
      "type": "error"
    },
    {
      "inputs": [
        {
          "internalType": "address",
          "name": "account",
          "type": "address"
        }
      ],
      "name": "OwnableUnauthorizedAccount",
      "type": "error"
    },
    {
      "inputs": [],
      "name": "ReentrancyGuardReentrantCall",
      "type": "error"
    },
    {
      "inputs": [],
      "name": "ReputationAlreadyExists",
      "type": "error"
    },
    {
      "inputs": [],
      "name": "ReputationNotFound",
      "type": "error"
    },
    {
      "inputs": [],
      "name": "UnauthorizedScorer",
      "type": "error"
    },
    {
      "anonymous": false,
      "inputs": [
        {
          "indexed": true,
          "internalType": "address",
          "name": "user",
          "type": "address"
        },
        {
          "indexed": false,
          "internalType": "uint64",
          "name": "timestamp",
          "type": "uint64"
        }
      ],
      "name": "InteractionRecorded",
      "type": "event"
    },
    {
      "anonymous": false,
      "inputs": [
        {
          "indexed": true,
          "internalType": "address",
          "name": "previousOwner",
          "type": "address"
        },
        {
          "indexed": true,
          "internalType": "address",
          "name": "newOwner",
          "type": "address"
        }
      ],
      "name": "OwnershipTransferred",
      "type": "event"
    },
    {
      "anonymous": false,
      "inputs": [
        {
          "indexed": true,
          "internalType": "address",
          "name": "user",
          "type": "address"
        },
        {
          "indexed": false,
          "internalType": "uint64",
          "name": "timestamp",
          "type": "uint64"
        }
      ],
      "name": "ReputationCreated",
      "type": "event"
    },
    {
      "anonymous": false,
      "inputs": [
        {
          "indexed": true,
          "internalType": "address",
          "name": "user",
          "type": "address"
        },
        {
          "indexed": false,
          "internalType": "uint64",
          "name": "timestamp",
          "type": "uint64"
        }
      ],
      "name": "ReputationUpdated",
      "type": "event"
    },
    {
      "anonymous": false,
      "inputs": [
        {
          "indexed": true,
          "internalType": "address",
          "name": "scorer",
          "type": "address"
        },
        {
          "indexed": false,
          "internalType": "bool",
          "name": "authorized",
          "type": "bool"
        }
      ],
      "name": "ScorerUpdated",
      "type": "event"
    },
    {
      "inputs": [],
      "name": "MAX_SCORE_CHANGE",
      "outputs": [
        {
          "internalType": "uint16",
          "name": "",
          "type": "uint16"
        }
      ],
      "stateMutability": "view",
      "type": "function"
    },
    {
      "inputs": [
        {
          "internalType": "address",
          "name": "",
          "type": "address"
        }
      ],
      "name": "authorizedScorers",
      "outputs": [
        {
          "internalType": "bool",
          "name": "",
          "type": "bool"
        }
      ],
      "stateMutability": "view",
      "type": "function"
    },
    {
      "inputs": [
        {
          "internalType": "address",
          "name": "user",
          "type": "address"
        }
      ],
      "name": "getEncryptedReputation",
      "outputs": [
        {
          "internalType": "euint16",
          "name": "totalScore",
          "type": "bytes32"
        },
        {
          "internalType": "euint16",
          "name": "trustScore",
          "type": "bytes32"
        },
        {
          "internalType": "euint16",
          "name": "activityScore",
          "type": "bytes32"
        }
      ],
      "stateMutability": "view",
      "type": "function"
    },
    {
      "inputs": [
        {
          "internalType": "address",
          "name": "user",
          "type": "address"
        }
      ],
      "name": "getReputationMetadata",
      "outputs": [
        {
          "internalType": "uint64",
          "name": "createdAt",
          "type": "uint64"
        },
        {
          "internalType": "uint64",
          "name": "lastUpdated",
          "type": "uint64"
        }
      ],
      "stateMutability": "view",
      "type": "function"
    },
    {
      "inputs": [
        {
          "internalType": "address",
          "name": "user",
          "type": "address"
        }
      ],
      "name": "hasReputation",
      "outputs": [
        {
          "internalType": "bool",
          "name": "",
          "type": "bool"
        }
      ],
      "stateMutability": "view",
      "type": "function"
    },
    {
      "inputs": [
        {
          "internalType": "address",
          "name": "user",
          "type": "address"
        },
        {
          "internalType": "externalEuint16",
          "name": "initialScoreExt",
          "type": "bytes32"
        },
        {
          "internalType": "bytes",
          "name": "scoreProof",
          "type": "bytes"
        }
      ],
      "name": "initializeReputation",
      "outputs": [],
      "stateMutability": "nonpayable",
      "type": "function"
    },
    {
      "inputs": [],
      "name": "owner",
      "outputs": [
        {
          "internalType": "address",
          "name": "",
          "type": "address"
        }
      ],
      "stateMutability": "view",
      "type": "function"
    },
    {
      "inputs": [],
      "name": "protocolId",
      "outputs": [
        {
          "internalType": "uint256",
          "name": "",
          "type": "uint256"
        }
      ],
      "stateMutability": "pure",
      "type": "function"
    },
    {
      "inputs": [
        {
          "internalType": "address",
          "name": "user",
          "type": "address"
        }
      ],
      "name": "recordInteraction",
      "outputs": [],
      "stateMutability": "nonpayable",
      "type": "function"
    },
    {
      "inputs": [],
      "name": "renounceOwnership",
      "outputs": [],
      "stateMutability": "nonpayable",
      "type": "function"
    },
    {
      "inputs": [
        {
          "internalType": "address",
          "name": "scorer",
          "type": "address"
        },
        {
          "internalType": "bool",
          "name": "authorized",
          "type": "bool"
        }
      ],
      "name": "setScorer",
      "outputs": [],
      "stateMutability": "nonpayable",
      "type": "function"
    },
    {
      "inputs": [],
      "name": "totalReputationAccounts",
      "outputs": [
        {
          "internalType": "uint256",
          "name": "",
          "type": "uint256"
        }
      ],
      "stateMutability": "view",
      "type": "function"
    },
    {
      "inputs": [
        {
          "internalType": "address",
          "name": "newOwner",
          "type": "address"
        }
      ],
      "name": "transferOwnership",
      "outputs": [],
      "stateMutability": "nonpayable",
      "type": "function"
    },
    {
      "inputs": [
        {
          "internalType": "address",
          "name": "user",
          "type": "address"
        },
        {
          "internalType": "externalEuint16",
          "name": "scoreChangeExt",
          "type": "bytes32"
        },
        {
          "internalType": "bytes",
          "name": "changeProof",
          "type": "bytes"
        }
      ],
      "name": "updateActivityScore",
      "outputs": [],
      "stateMutability": "nonpayable",
      "type": "function"
    },
    {
      "inputs": [
        {
          "internalType": "address",
          "name": "user",
          "type": "address"
        },
        {
          "internalType": "externalEuint16",
          "name": "scoreChangeExt",
          "type": "bytes32"
        },
        {
          "internalType": "bytes",
          "name": "changeProof",
          "type": "bytes"
        }
      ],
      "name": "updateTrustScore",
      "outputs": [],
      "stateMutability": "nonpayable",
      "type": "function"
    }
  ],
  "bytecode": "0x60806040523461020c575f6060610014610210565b8281528260208201528260408201520152731364cbbf2cdf5032c47d8226a6f6fbd2afcdacac6060610044610210565b73687820221192c5b662b25367f70076a37bc79b6c815273848b0066793bcc60346da1f49049357399b8d595602082015273a02cda4ca3a71d7c46997716f4283aa851c288126040820152015273687820221192c5b662b25367f70076a37bc79b6c60018060a01b03195f5160206111df5f395f51905f525416175f5160206111df5f395f51905f525573848b0066793bcc60346da1f49049357399b8d59560018060a01b03195f51602061119f5f395f51905f525416175f51602061119f5f395f51905f525573a02cda4ca3a71d7c46997716f4283aa851c2881260018060a01b03195f5160206111bf5f395f51905f525416175f5160206111bf5f395f51905f5255731364cbbf2cdf5032c47d8226a6f6fbd2afcdacac60018060a01b03195f51602061117f5f395f51905f525416175f51602061117f5f395f51905f525533156101f9575f8054336001600160a01b03198216811783556040519290916001600160a01b0316907f8be0079c531659141344cd1fd0a4f28419497f9722a3daafe3b4186f6b6457e09080a360018055335f52600360205260405f20600160ff19825416179055610f3b90816102448239f35b631e4fbdf760e01b5f525f60045260245ffd5b5f80fd5b60405190608082016001600160401b0381118382101761022f57604052565b634e487b7160e01b5f52604160045260245ffdfe60806040526004361015610011575f80fd5b5f3560e01c80631044af15146109385780632a03daf8146106935780632b92b1851461059e5780634e7227af146105825780635bbb116014610417578063715018a6146103c05780637bbf655d146103515780637f29ee4c1461030e5780638da5cb5b146102e75780639decbd2b1461023a578063ad3c981a146101bd578063ce1efbae146101a0578063da1f12ab14610184578063f2fde38b146100ff5763f5ebef48146100be575f80fd5b346100fb5760203660031901126100fb576001600160a01b036100df610ac7565b165f526003602052602060ff60405f2054166040519015158152f35b5f80fd5b346100fb5760203660031901126100fb57610118610ac7565b610120610d1b565b6001600160a01b03168015610171575f80546001600160a01b03198116831782556001600160a01b0316907f8be0079c531659141344cd1fd0a4f28419497f9722a3daafe3b4186f6b6457e09080a3005b631e4fbdf760e01b5f525f60045260245ffd5b346100fb575f3660031901126100fb5760206040516127118152f35b346100fb575f3660031901126100fb576020600454604051908152f35b346100fb5760403660031901126100fb576101d6610ac7565b602435908115158092036100fb5760207fcbe8ccafb0be8e97be60a968b2040f8d91c20192441e93a2ba86ec168adecb8d91610210610d1b565b60018060a01b031692835f526003825260405f2060ff1981541660ff8316179055604051908152a2005b346100fb5760203660031901126100fb576001600160a01b0361025b610ac7565b16805f52600260205260ff600460405f20015460801c16156102d85780331415806102c1575b6102b2575f526002602052606060405f20805490600260018201549101549060405192835260208301526040820152f35b634e64c42960e11b5f5260045ffd5b50335f52600360205260ff60405f20541615610281565b637b2c19e560e01b5f5260045ffd5b346100fb575f3660031901126100fb575f546040516001600160a01b039091168152602090f35b346100fb5760203660031901126100fb576001600160a01b0361032f610ac7565b165f526002602052602060ff600460405f20015460801c166040519015158152f35b346100fb5760203660031901126100fb576001600160a01b03610372610ac7565b16805f52600260205260ff600460405f20015460801c16156102d8575f908152600260209081526040918290206004015482516001600160401b0382851c8116825290911691810191909152f35b346100fb575f3660031901126100fb576103d8610d1b565b5f80546001600160a01b0319811682556001600160a01b03167f8be0079c531659141344cd1fd0a4f28419497f9722a3daafe3b4186f6b6457e08280a3005b346100fb5761042536610add565b610430939193610baa565b335f52600360205260ff60405f205416156102b2576001600160a01b0382165f8181526002602052604090206004015490949060801c60ff16156102d8576105219361048461048a9261049f943691610b65565b90610bca565b845f526002602052600160405f200154610cf2565b5f8481526002602081905260409091206001810183905501546104c191610cf2565b5f848152600260205260409020908155600101546104e0903090610e68565b825f5260026020526104f63060405f2054610e68565b825f52600260205261050f81600160405f200154610e68565b825f52600260205260405f2054610e68565b7ff27f7341e9cfce3820fc85b64e2b50a65bd217f85b32fdc05747d696bd256de060206001600160401b034216835f5260028252600460405f20016001600160401b0382166001600160401b0319825416179055604051908152a260018055005b346100fb575f3660031901126100fb5760206040516103e88152f35b346100fb576105ac36610add565b6105b7939193610baa565b335f52600360205260ff60405f205416156102b2576001600160a01b0382165f8181526002602052604090206004015490949060801c60ff16156102d8576105219361048461060b92610620943691610b65565b845f526002602052600260405f200154610cf2565b5f848152600260208190526040909120908101829055600101546106449190610cf2565b5f8481526002602081905260409091209182550154610664903090610e68565b825f52600260205261067a3060405f2054610e68565b825f52600260205261050f81600260405f200154610e68565b346100fb576106a136610add565b906106ad939293610baa565b335f52600360205260ff60405f205416156102b2576001600160a01b0383165f8181526002602052604090206004015490949060801c60ff16610929576104846106fa925f943691610b65565b91828015610917575b5f516020610ee65f395f51905f5254604051635a53accb60e01b8152600481019290925260026024830152600160f81b6044830152909260209184916064918391906001600160a01b03165af191821561090c575f926108d6575b506107879061076d3085610e68565b6107773084610e68565b6107818185610e68565b82610e68565b6001600160401b0342169161079a610d41565b916040519160e083018381106001600160401b038211176108c25760405282526001600160401b0380600460208501948486526040810194855260608101968752608081019688885260a082019589875260c0830197600189528b5f52600260205260405f209351845551600184015551600283015551600382015501945116166001600160401b031984541617835551906fffffffffffffffff000000000000000083549160ff60801b9051151560801b169260401b169070ffffffffffffffffff00000000000000001916171790556004545f1981146108ae577f69214cfbae4b8511cb3932cd73ba98d9fe98510fcdf1bc773c07907df5546d8191600160209201600455604051908152a260018055005b634e487b7160e01b5f52601160045260245ffd5b634e487b7160e01b5f52604160045260245ffd5b9091506020813d602011610904575b816108f260209383610b44565b810103126100fb57519061078761075e565b3d91506108e5565b6040513d5f823e3d90fd5b506020610922610dbe565b9050610703565b6310ab4f8b60e11b5f5260045ffd5b346100fb5760203660031901126100fb57610951610ac7565b335f52600360205260ff60405f205416156102b2576001600160a01b0381165f8181526002602052604090206004015490919060801c60ff16156102d8575f8281526002602052604090819020600301545f516020610ee65f395f51905f52549151639cd07acb60e01b8152600160048201529092916001600160a01b0316816044815f602094600460248401525af190811561090c575f91610a93575b50610a3e92610a0b9190818115610a83575b15610a7357610e0c565b5f848152600260205260409020600301819055610a29903090610e68565b825f526002602052600360405f200154610e68565b7fba2aaec2acfeca3f88068b46de5e9b17285d32545642e3abc582f33a4df94c0160206040516001600160401b0342168152a2005b9050610a7d610d41565b90610e0c565b9050610a8d610d41565b90610a01565b90506020813d602011610abf575b81610aae60209383610b44565b810103126100fb5751610a3e6109ef565b3d9150610aa1565b600435906001600160a01b03821682036100fb57565b9060606003198301126100fb576004356001600160a01b03811681036100fb5791602435916044356001600160401b0381116100fb57826023820112156100fb578060040135926001600160401b0384116100fb57602484830101116100fb576024019190565b90601f801991011681019081106001600160401b038211176108c257604052565b9291926001600160401b0382116108c25760405191610b8e601f8201601f191660200184610b44565b8294818452818301116100fb578281602093845f960137010152565b600260015414610bbb576002600155565b633ee5aeb560e01b5f5260045ffd5b602091829160018060a01b035f516020610ee65f395f51905f525416905f60a460405180978196829563196d0b9b60e01b84526004840152336024840152608060448401528051918291826084860152018484015e818101830184905260036064830152601f01601f191681010301925af190811561090c575f91610cc0575b507f9e7b61f58c47dc699ac88507c4f5bb9f121c03808c5676a8078fe583e4649700546001600160a01b0316803b156100fb57604051630f8e573b60e21b815260048101839052336024820152905f908290604490829084905af1801561090c57610cb3575090565b5f610cbd91610b44565b90565b90506020813d602011610cea575b81610cdb60209383610b44565b810103126100fb57515f610c4a565b3d9150610cce565b90610cbd918015610d0d575b81610e0c579050610a7d610dbe565b50610d16610dbe565b610cfe565b5f546001600160a01b03163303610d2e57565b63118cdaa760e01b5f523360045260245ffd5b5f516020610ee65f395f51905f5254604051639cd07acb60e01b81525f6004820152906001600160a01b0316816044815f602094600460248401525af190811561090c575f91610d8f575090565b90506020813d602011610db6575b81610daa60209383610b44565b810103126100fb575190565b3d9150610d9d565b5f516020610ee65f395f51905f5254604051639cd07acb60e01b81525f6004820152906001600160a01b0316816044815f602094600360248401525af190811561090c575f91610d8f575090565b5f516020610ee65f395f51905f525460405163022f65e760e31b8152600481019290925260248201929092525f604482018190529091602091839160649183916001600160a01b03165af190811561090c575f91610d8f575090565b7f9e7b61f58c47dc699ac88507c4f5bb9f121c03808c5676a8078fe583e4649700546001600160a01b031691823b156100fb57604051635ca4b5b160e11b815260048101929092526001600160a01b03166024820152905f908290604490829084905af1801561090c57610ed95750565b5f610ee391610b44565b56fe9e7b61f58c47dc699ac88507c4f5bb9f121c03808c5676a8078fe583e4649701a2646970667358221220d2857683e00d929ca84e6436eaf33d4f0da249a2040f55afb4fe6b0b0a2cc99164736f6c634300081c00339e7b61f58c47dc699ac88507c4f5bb9f121c03808c5676a8078fe583e46497039e7b61f58c47dc699ac88507c4f5bb9f121c03808c5676a8078fe583e46497019e7b61f58c47dc699ac88507c4f5bb9f121c03808c5676a8078fe583e46497029e7b61f58c47dc699ac88507c4f5bb9f121c03808c5676a8078fe583e4649700",
  "linkReferences": {},
  "deployedLinkReferences": {}
}