{
  "_format": "hh-sol-artifact-1",
  "contractName": "IdentityRegistry",
  "sourceName": "src/identity/IdentityRegistry.sol",
  "abi": [
    {
      "inputs": [],
      "stateMutability": "nonpayable",
      "type": "constructor"
    },
    {
      "inputs": [],
      "name": "IdentityAlreadyExists",
      "type": "error"
    },
    {
      "inputs": [],
      "name": "IdentityExpired",
      "type": "error"
    },
    {
      "inputs": [],
      "name": "IdentityNotFound",
      "type": "error"
    },
    {
      "inputs": [],
      "name": "InvalidKYCLevel",
      "type": "error"
    },
    {
      "inputs": [],
      "name": "InvalidRiskScore",
      "type": "error"
    },
    {
      "inputs": [
        {
          "internalType": "address",
          "name": "owner",
          "type": "address"
        }
      ],
      "name": "OwnableInvalidOwner",
      "type": "error"
    },
    {
      "inputs": [
        {
          "internalType": "address",
          "name": "account",
          "type": "address"
        }
      ],
      "name": "OwnableUnauthorizedAccount",
      "type": "error"
    },
    {
      "inputs": [],
      "name": "ReentrancyGuardReentrantCall",
      "type": "error"
    },
    {
      "inputs": [],
      "name": "UnauthorizedVerifier",
      "type": "error"
    },
    {
      "anonymous": false,
      "inputs": [
        {
          "indexed": true,
          "internalType": "address",
          "name": "user",
          "type": "address"
        },
        {
          "indexed": true,
          "internalType": "address",
          "name": "contractAddr",
          "type": "address"
        },
        {
          "indexed": false,
          "internalType": "bool",
          "name": "authorized",
          "type": "bool"
        }
      ],
      "name": "ContractAuthorized",
      "type": "event"
    },
    {
      "anonymous": false,
      "inputs": [
        {
          "indexed": true,
          "internalType": "address",
          "name": "user",
          "type": "address"
        },
        {
          "indexed": false,
          "internalType": "uint64",
          "name": "timestamp",
          "type": "uint64"
        }
      ],
      "name": "IdentityCreated",
      "type": "event"
    },
    {
      "anonymous": false,
      "inputs": [
        {
          "indexed": true,
          "internalType": "address",
          "name": "user",
          "type": "address"
        },
        {
          "indexed": false,
          "internalType": "uint64",
          "name": "timestamp",
          "type": "uint64"
        }
      ],
      "name": "IdentityRevoked",
      "type": "event"
    },
    {
      "anonymous": false,
      "inputs": [
        {
          "indexed": true,
          "internalType": "address",
          "name": "user",
          "type": "address"
        },
        {
          "indexed": false,
          "internalType": "uint64",
          "name": "timestamp",
          "type": "uint64"
        }
      ],
      "name": "IdentityUpdated",
      "type": "event"
    },
    {
      "anonymous": false,
      "inputs": [
        {
          "indexed": true,
          "internalType": "address",
          "name": "previousOwner",
          "type": "address"
        },
        {
          "indexed": true,
          "internalType": "address",
          "name": "newOwner",
          "type": "address"
        }
      ],
      "name": "OwnershipTransferred",
      "type": "event"
    },
    {
      "anonymous": false,
      "inputs": [
        {
          "indexed": true,
          "internalType": "address",
          "name": "verifier",
          "type": "address"
        },
        {
          "indexed": false,
          "internalType": "bool",
          "name": "authorized",
          "type": "bool"
        }
      ],
      "name": "VerifierUpdated",
      "type": "event"
    },
    {
      "inputs": [
        {
          "internalType": "address",
          "name": "contractAddr",
          "type": "address"
        },
        {
          "internalType": "bool",
          "name": "authorized",
          "type": "bool"
        }
      ],
      "name": "authorizeContract",
      "outputs": [],
      "stateMutability": "nonpayable",
      "type": "function"
    },
    {
      "inputs": [
        {
          "internalType": "address",
          "name": "",
          "type": "address"
        },
        {
          "internalType": "address",
          "name": "",
          "type": "address"
        }
      ],
      "name": "authorizedContracts",
      "outputs": [
        {
          "internalType": "bool",
          "name": "",
          "type": "bool"
        }
      ],
      "stateMutability": "view",
      "type": "function"
    },
    {
      "inputs": [
        {
          "internalType": "address",
          "name": "",
          "type": "address"
        }
      ],
      "name": "authorizedVerifiers",
      "outputs": [
        {
          "internalType": "bool",
          "name": "",
          "type": "bool"
        }
      ],
      "stateMutability": "view",
      "type": "function"
    },
    {
      "inputs": [
        {
          "internalType": "address",
          "name": "user",
          "type": "address"
        }
      ],
      "name": "getEncryptedIdentity",
      "outputs": [
        {
          "internalType": "euint32",
          "name": "fullNameHash",
          "type": "bytes32"
        },
        {
          "internalType": "euint8",
          "name": "age",
          "type": "bytes32"
        },
        {
          "internalType": "euint32",
          "name": "addressHash",
          "type": "bytes32"
        },
        {
          "internalType": "euint16",
          "name": "countryCode",
          "type": "bytes32"
        },
        {
          "internalType": "euint32",
          "name": "passportHash",
          "type": "bytes32"
        },
        {
          "internalType": "euint8",
          "name": "kycLevel",
          "type": "bytes32"
        },
        {
          "internalType": "euint8",
          "name": "riskScore",
          "type": "bytes32"
        },
        {
          "internalType": "euint8",
          "name": "verified",
          "type": "bytes32"
        }
      ],
      "stateMutability": "view",
      "type": "function"
    },
    {
      "inputs": [
        {
          "internalType": "address",
          "name": "user",
          "type": "address"
        }
      ],
      "name": "getIdentityMetadata",
      "outputs": [
        {
          "internalType": "uint64",
          "name": "createdAt",
          "type": "uint64"
        },
        {
          "internalType": "uint64",
          "name": "updatedAt",
          "type": "uint64"
        }
      ],
      "stateMutability": "view",
      "type": "function"
    },
    {
      "inputs": [
        {
          "internalType": "address",
          "name": "user",
          "type": "address"
        }
      ],
      "name": "hasIdentity",
      "outputs": [
        {
          "internalType": "bool",
          "name": "",
          "type": "bool"
        }
      ],
      "stateMutability": "view",
      "type": "function"
    },
    {
      "inputs": [
        {
          "internalType": "address",
          "name": "user",
          "type": "address"
        }
      ],
      "name": "isVerified",
      "outputs": [
        {
          "internalType": "bool",
          "name": "",
          "type": "bool"
        }
      ],
      "stateMutability": "view",
      "type": "function"
    },
    {
      "inputs": [],
      "name": "owner",
      "outputs": [
        {
          "internalType": "address",
          "name": "",
          "type": "address"
        }
      ],
      "stateMutability": "view",
      "type": "function"
    },
    {
      "inputs": [],
      "name": "protocolId",
      "outputs": [
        {
          "internalType": "uint256",
          "name": "",
          "type": "uint256"
        }
      ],
      "stateMutability": "pure",
      "type": "function"
    },
    {
      "inputs": [],
      "name": "renounceOwnership",
      "outputs": [],
      "stateMutability": "nonpayable",
      "type": "function"
    },
    {
      "inputs": [
        {
          "internalType": "address",
          "name": "user",
          "type": "address"
        }
      ],
      "name": "revokeIdentity",
      "outputs": [],
      "stateMutability": "nonpayable",
      "type": "function"
    },
    {
      "inputs": [
        {
          "internalType": "address",
          "name": "verifier",
          "type": "address"
        },
        {
          "internalType": "bool",
          "name": "authorized",
          "type": "bool"
        }
      ],
      "name": "setVerifier",
      "outputs": [],
      "stateMutability": "nonpayable",
      "type": "function"
    },
    {
      "inputs": [
        {
          "internalType": "externalEuint32",
          "name": "fullNameHashExt",
          "type": "bytes32"
        },
        {
          "internalType": "bytes",
          "name": "fullNameProof",
          "type": "bytes"
        },
        {
          "internalType": "externalEuint8",
          "name": "ageExt",
          "type": "bytes32"
        },
        {
          "internalType": "bytes",
          "name": "ageProof",
          "type": "bytes"
        },
        {
          "internalType": "externalEuint32",
          "name": "addressHashExt",
          "type": "bytes32"
        },
        {
          "internalType": "bytes",
          "name": "addressProof",
          "type": "bytes"
        },
        {
          "internalType": "externalEuint16",
          "name": "countryExt",
          "type": "bytes32"
        },
        {
          "internalType": "bytes",
          "name": "countryProof",
          "type": "bytes"
        },
        {
          "internalType": "externalEuint32",
          "name": "passportHashExt",
          "type": "bytes32"
        },
        {
          "internalType": "bytes",
          "name": "passportProof",
          "type": "bytes"
        }
      ],
      "name": "submitIdentity",
      "outputs": [],
      "stateMutability": "nonpayable",
      "type": "function"
    },
    {
      "inputs": [],
      "name": "totalIdentities",
      "outputs": [
        {
          "internalType": "uint256",
          "name": "",
          "type": "uint256"
        }
      ],
      "stateMutability": "view",
      "type": "function"
    },
    {
      "inputs": [
        {
          "internalType": "address",
          "name": "newOwner",
          "type": "address"
        }
      ],
      "name": "transferOwnership",
      "outputs": [],
      "stateMutability": "nonpayable",
      "type": "function"
    },
    {
      "inputs": [
        {
          "internalType": "address",
          "name": "user",
          "type": "address"
        },
        {
          "internalType": "uint8",
          "name": "newKycLevel",
          "type": "uint8"
        },
        {
          "internalType": "uint8",
          "name": "newRiskScore",
          "type": "uint8"
        }
      ],
      "name": "verifyIdentity",
      "outputs": [],
      "stateMutability": "nonpayable",
      "type": "function"
    }
  ],
  "bytecode": "0x6080604052346101f5575f60606100146101f9565b8281528260208201528260408201520152731364cbbf2cdf5032c47d8226a6f6fbd2afcdacac60606100446101f9565b73687820221192c5b662b25367f70076a37bc79b6c815273848b0066793bcc60346da1f49049357399b8d595602082015273a02cda4ca3a71d7c46997716f4283aa851c288126040820152015273687820221192c5b662b25367f70076a37bc79b6c60018060a01b03195f5160206116f65f395f51905f525416175f5160206116f65f395f51905f525573848b0066793bcc60346da1f49049357399b8d59560018060a01b03195f5160206116b65f395f51905f525416175f5160206116b65f395f51905f525573a02cda4ca3a71d7c46997716f4283aa851c2881260018060a01b03195f5160206116d65f395f51905f525416175f5160206116d65f395f51905f5255731364cbbf2cdf5032c47d8226a6f6fbd2afcdacac60018060a01b03195f5160206116965f395f51905f525416175f5160206116965f395f51905f525533156101e2575f8054336001600160a01b03198216811783556040519290916001600160a01b0316907f8be0079c531659141344cd1fd0a4f28419497f9722a3daafe3b4186f6b6457e09080a360018055611469908161022d8239f35b631e4fbdf760e01b5f525f60045260245ffd5b5f80fd5b60405190608082016001600160401b0381118382101761021857604052565b634e487b7160e01b5f52604160045260245ffdfe6080806040526004361015610012575f80fd5b5f905f3560e01c9081630ebddd1714610f8357508063237f1a2114610f40578063306e00cf14610e515780633259a77b146106d357806345042958146104a7578063465c7b9a1461043e5780635cbeb13f14610394578063715018a61461033a5780637bf5351c146102d15780638da5cb5b146102aa5780639a8917161461026b578063ac9b5671146101ff578063b9209e3314610191578063da1f12ab14610174578063f2fde38b146100ee5763f5c5987b146100ce575f80fd5b346100eb57806003193601126100eb576020600454604051908152f35b80fd5b50346100eb5760203660031901126100eb57610108611095565b610110611259565b6001600160a01b031680156101605781546001600160a01b03198116821783556001600160a01b03167f8be0079c531659141344cd1fd0a4f28419497f9722a3daafe3b4186f6b6457e08380a380f35b631e4fbdf760e01b82526004829052602482fd5b50346100eb57806003193601126100eb5760206040516127118152f35b50346100eb5760203660031901126100eb576001600160a01b036101b3611095565b16808252600260205260ff600860408420015460801c16156101f057600860408360ff93602095526002855220015460801c166040519015158152f35b6369e0942b60e11b8252600482fd5b50346100eb5760207fba5f7031ad83095931ee4b5138591db2dc3cfc56178367622fa4b05c2efad231610231366110d8565b929061023b611259565b6001600160a01b03168085526003825260408520805460ff191660ff86151516179055926040519015158152a280f35b50346100eb5760203660031901126100eb5760209060ff906040906001600160a01b03610296611095565b168152600384522054166040519015158152f35b50346100eb57806003193601126100eb57546040516001600160a01b039091168152602090f35b50346100eb5760403660031901126100eb576102eb611095565b60243591906001600160a01b0383168303610336579060409160018060a01b031681526005602052209060018060a01b03165f52602052602060ff60405f2054166040519015158152f35b5080fd5b50346100eb57806003193601126100eb57610353611259565b80546001600160a01b03198116825581906001600160a01b03167f8be0079c531659141344cd1fd0a4f28419497f9722a3daafe3b4186f6b6457e08280a380f35b50346100eb576103a3366110d8565b90338352600260205260ff600860408520015460801c161561042f5733835260056020526040832060018060a01b0382165f526020526103f28260405f209060ff801983541691151516179055565b60405191151582526001600160a01b03169033907f8c5776159f04e79776b28b724a875483c958ec19856f3c0977d4fee50c558e9490602090a380f35b6369e0942b60e11b8352600483fd5b50346100eb5760203660031901126100eb576001600160a01b03610460611095565b16808252600260205260ff600860408420015460801c16156101f05760408260089282945260026020522001546001600160401b038251918181168352831c166020820152f35b50346100eb5760603660031901126100eb576104c1611095565b6024359060ff8216918281036106cf576044359060ff82168083036106cb576001600160a01b0384168087526002602052604087206008015490959060801c60ff16156106bc57338752600360205260ff60408820541615806106a8575b6106995760051061068a5760641061067b57916105766020926105627fcd5d131bbc6efef8b5b10c8b8e1d354979185520a0627169756983dd744f26bf95611203565b868852600285526005604089200155611203565b84865260028352600660408720015561058d611181565b8486526002835260076040872001556106716001600160401b03421691858752600284526105e483600860408a20019067ffffffffffffffff60401b82549160401b169067ffffffffffffffff60401b1916179055565b858752600284526105fd6005604089200154309061139f565b8587526002845261061530600660408a20015461139f565b8587526002845261062d30600760408a20015461139f565b8587526002845261064581600560408a20015461139f565b8587526002845261065d81600660408a20015461139f565b85875260028452600760408820015461139f565b604051908152a280f35b6330cdce3160e21b8552600485fd5b633d98a22f60e21b8652600486fd5b63b9857aa160e01b8752600487fd5b5086546001600160a01b031633141561051f565b6369e0942b60e11b8752600487fd5b8580fd5b8380fd5b5034610d3057610140366003190112610d30576024356001600160401b038111610d30576107059036906004016110ab565b906064356001600160401b038111610d30576107259036906004016110ab565b9160a4356001600160401b038111610d30576107459036906004016110ab565b91909460e4356001600160401b038111610d30576107679036906004016110ab565b969091610124356001600160401b038111610d305761078a9036906004016110ab565b969094600260015414610e42576107ae6107b6916107be946002600155369161113c565b60043561127f565b97369161113c565b9360018060a01b035f5160206113f45f395f51905f52541660206040519663196d0b9b60e01b885260443560048901523360248901526080604489015280519182918260848b01520160a489015e5f87820160a40152602091875f60a482809560026064830152601f801991011681010301925af1948515610e03575f95610e0e575b505f5160206114145f395f51905f52546001600160a01b0316803b15610d3057604051630f8e573b60e21b815260048101879052336024820152905f908290604490829084905af18015610e0357610ddf575b506108a86108b893926108b092369161113c565b60843561127f565b96369161113c565b5f5160206113f45f395f51905f525460405163196d0b9b60e01b815260c4356004820152336024820152608060448201528251608482018190529095926001600160a01b0390921691819060200160a488015e85810160a401899052602091868a60a482809560036064830152601f801991011681010301925af1938415610dd4578794610da0575b505f5160206114145f395f51905f525487906001600160a01b0316803b1561033657604051630f8e573b60e21b8152600481018790523360248201529082908290604490829084905af18015610d7c57610d87575b50506109b0916109a791369161113c565b6101043561127f565b936109b9611181565b938680602060018060a01b035f5160206113f45f395f51905f525416604460405180948193639cd07acb60e01b835260326004840152600260248401525af1908115610d7c578291610d47575b505f5160206113f45f395f51905f5254604051639cd07acb60e01b815260048101849052600260248201529260209184916044918391906001600160a01b03165af1918215610d3c578992610d04575b50610a61308461139f565b610a6b308661139f565b610a75308561139f565b610a7f308761139f565b610a89308961139f565b610a93308861139f565b610a9d308261139f565b610aa7308361139f565b610ab1338461139f565b610abb338661139f565b610ac5338561139f565b610acf338761139f565b610ad9338961139f565b610ae3338861139f565b610aed338261139f565b610af7338361139f565b338952600260205260ff600860408b20015460801c1615966001600160401b03421698885f14610ce55789975b6040519561016087018781106001600160401b03821117610cd15760405286526020860197885260408601968752606086019081526080860191825260a0860192835260c0860193845260e086019485526101008601986001600160401b031689526101208601968b885261014087019860018a528d3390528d6002602052604090209751885551600188015551600287015551600386015551600485015551600584015551600683015551600782015560080192516001600160401b03166001600160401b0319845416178355516001600160401b0316610c2990839067ffffffffffffffff60401b82549160401b169067ffffffffffffffff60401b1916179055565b51815460ff60801b191690151560801b60ff60801b1617905515610ca0576004545f198114610c8c576001016004556040519081527f82f8e652187bd3e7e5f0a44880afaf3d7dd7d6ffea2cfb4e30582fefdc82841860203392a25b6001805580f35b634e487b7160e01b83526011600452602483fd5b6040519081527fcd5d131bbc6efef8b5b10c8b8e1d354979185520a0627169756983dd744f26bf60203392a2610c85565b634e487b7160e01b8e52604160045260248efd5b338b5260026020526001600160401b03600860408d2001541697610b24565b9091506020813d602011610d34575b81610d2060209383611107565b81010312610d305751905f610a56565b5f80fd5b3d9150610d13565b6040513d8b823e3d90fd5b9150506020813d602011610d74575b81610d6360209383611107565b81010312610d30578790515f610a06565b3d9150610d56565b6040513d84823e3d90fd5b81610d9191611107565b610d9c57865f610996565b8680fd5b9093506020813d602011610dcc575b81610dbc60209383611107565b81010312610d305751925f610941565b3d9150610daf565b6040513d89823e3d90fd5b6108b09199506108b89392610df75f6108a893611107565b5f9a9250929350610894565b6040513d5f823e3d90fd5b9094506020813d602011610e3a575b81610e2a60209383611107565b81010312610d305751935f610841565b3d9150610e1d565b633ee5aeb560e01b5f5260045ffd5b34610d30576020366003190112610d30576001600160a01b03610e72611095565b16805f52600260205260ff600860405f20015460801c1615610f31578033141580610f0e575b610eff575f52600260205261010060405f20805490600181015490600281015460038201546004830154906005840154926007600686015495015495604051978852602088015260408701526060860152608085015260a084015260c083015260e0820152f35b63b9857aa160e01b5f5260045ffd5b505f81815260056020908152604080832033845290915290205460ff1615610e98565b6369e0942b60e11b5f5260045ffd5b34610d30576020366003190112610d30576001600160a01b03610f61611095565b165f526002602052602060ff600860405f20015460801c166040519015158152f35b34610d30576020366003190112610d30576001600160a01b03610fa4611095565b1690815f52600260205260ff600860405f20015460801c1615610f3157813314158061107e575b8061106a575b610eff57815f5260026020525f60086040822082815582600182015582600282015582600382015582600482015582600582015582600682015582600782015501556004548015611056575f1901600455426001600160401b031681527f11e506d8cbb1c3a23fe61007281783da0b655e9dbee955b3dae80288f0b2200890602090a2005b634e487b7160e01b5f52601160045260245ffd5b505f546001600160a01b0316331415610fd1565b50335f52600360205260ff60405f20541615610fcb565b600435906001600160a01b0382168203610d3057565b9181601f84011215610d30578235916001600160401b038311610d305760208381860195010111610d3057565b6040906003190112610d30576004356001600160a01b0381168103610d3057906024358015158103610d305790565b90601f801991011681019081106001600160401b0382111761112857604052565b634e487b7160e01b5f52604160045260245ffd5b9291926001600160401b0382116111285760405191611165601f8201601f191660200184611107565b829481845281830111610d30578281602093845f960137010152565b5f5160206113f45f395f51905f5254604051639cd07acb60e01b8152600160048201526002602482015290602090829060449082905f906001600160a01b03165af1908115610e03575f916111d4575090565b90506020813d6020116111fb575b816111ef60209383611107565b81010312610d30575190565b3d91506111e2565b5f5160206113f45f395f51905f5254604051639cd07acb60e01b815260ff92909216600483015260026024830152602090829060449082905f906001600160a01b03165af1908115610e03575f916111d4575090565b5f546001600160a01b0316330361126c57565b63118cdaa760e01b5f523360045260245ffd5b919060205f5160206113f45f395f51905f5254916040519463196d0b9b60e01b865260048601523360248601526080604486015280519182918260848801520160a486015e5f84820160a40152600460648501526020918491601f01601f1916820182900360a4019082905f906001600160a01b03165af1918215610e03575f9261136b575b505f5160206114145f395f51905f525482906001600160a01b0316803b15610d3057604051630f8e573b60e21b815260048101929092523360248301525f908290818381604481015b03925af18015610e035761135f5750565b5f61136991611107565b565b9091506020813d602011611397575b8161138760209383611107565b81010312610d305751905f611305565b3d915061137a565b5f5160206114145f395f51905f52546001600160a01b031691823b15610d3057604051635ca4b5b160e11b815260048101929092526001600160a01b03166024820152905f9082908183816044810161134e56fe9e7b61f58c47dc699ac88507c4f5bb9f121c03808c5676a8078fe583e46497019e7b61f58c47dc699ac88507c4f5bb9f121c03808c5676a8078fe583e4649700a264697066735822122088fbb3758494f2db9f15c7dc53f8a030bb384b726cfc74dd19d23f76eb06b13564736f6c634300081c00339e7b61f58c47dc699ac88507c4f5bb9f121c03808c5676a8078fe583e46497039e7b61f58c47dc699ac88507c4f5bb9f121c03808c5676a8078fe583e46497019e7b61f58c47dc699ac88507c4f5bb9f121c03808c5676a8078fe583e46497029e7b61f58c47dc699ac88507c4f5bb9f121c03808c5676a8078fe583e4649700",
  "linkReferences": {},
  "deployedLinkReferences": {}
}