{
  "_format": "hh-sol-artifact-1",
  "contractName": "ComplianceVerifier",
  "sourceName": "src/compliance/ComplianceVerifier.sol",
  "abi": [
    {
      "inputs": [
        {
          "internalType": "address",
          "name": "_identityRegistry",
          "type": "address"
        },
        {
          "internalType": "address",
          "name": "_policyEngine",
          "type": "address"
        }
      ],
      "stateMutability": "nonpayable",
      "type": "constructor"
    },
    {
      "inputs": [],
      "name": "AttestationExpired",
      "type": "error"
    },
    {
      "inputs": [],
      "name": "InvalidRegistries",
      "type": "error"
    },
    {
      "inputs": [],
      "name": "InvalidRequirement",
      "type": "error"
    },
    {
      "inputs": [],
      "name": "NoAttestation",
      "type": "error"
    },
    {
      "inputs": [],
      "name": "NoIdentity",
      "type": "error"
    },
    {
      "inputs": [
        {
          "internalType": "address",
          "name": "owner",
          "type": "address"
        }
      ],
      "name": "OwnableInvalidOwner",
      "type": "error"
    },
    {
      "inputs": [
        {
          "internalType": "address",
          "name": "account",
          "type": "address"
        }
      ],
      "name": "OwnableUnauthorizedAccount",
      "type": "error"
    },
    {
      "inputs": [],
      "name": "PolicyNotEvaluated",
      "type": "error"
    },
    {
      "inputs": [],
      "name": "ReentrancyGuardReentrantCall",
      "type": "error"
    },
    {
      "inputs": [],
      "name": "RequirementInactive",
      "type": "error"
    },
    {
      "inputs": [],
      "name": "UnauthorizedOfficer",
      "type": "error"
    },
    {
      "anonymous": false,
      "inputs": [
        {
          "indexed": true,
          "internalType": "address",
          "name": "user",
          "type": "address"
        },
        {
          "indexed": true,
          "internalType": "uint256",
          "name": "requirementId",
          "type": "uint256"
        },
        {
          "indexed": false,
          "internalType": "uint64",
          "name": "issuedAt",
          "type": "uint64"
        },
        {
          "indexed": false,
          "internalType": "uint64",
          "name": "expiresAt",
          "type": "uint64"
        }
      ],
      "name": "AttestationIssued",
      "type": "event"
    },
    {
      "anonymous": false,
      "inputs": [
        {
          "indexed": true,
          "internalType": "address",
          "name": "user",
          "type": "address"
        },
        {
          "indexed": true,
          "internalType": "uint256",
          "name": "requirementId",
          "type": "uint256"
        }
      ],
      "name": "AttestationRevoked",
      "type": "event"
    },
    {
      "anonymous": false,
      "inputs": [
        {
          "indexed": true,
          "internalType": "address",
          "name": "officer",
          "type": "address"
        },
        {
          "indexed": false,
          "internalType": "bool",
          "name": "authorized",
          "type": "bool"
        }
      ],
      "name": "ComplianceOfficerUpdated",
      "type": "event"
    },
    {
      "anonymous": false,
      "inputs": [
        {
          "indexed": true,
          "internalType": "address",
          "name": "previousOwner",
          "type": "address"
        },
        {
          "indexed": true,
          "internalType": "address",
          "name": "newOwner",
          "type": "address"
        }
      ],
      "name": "OwnershipTransferred",
      "type": "event"
    },
    {
      "anonymous": false,
      "inputs": [
        {
          "indexed": true,
          "internalType": "uint256",
          "name": "requirementId",
          "type": "uint256"
        },
        {
          "indexed": false,
          "internalType": "string",
          "name": "name",
          "type": "string"
        }
      ],
      "name": "RequirementCreated",
      "type": "event"
    },
    {
      "anonymous": false,
      "inputs": [
        {
          "indexed": true,
          "internalType": "uint256",
          "name": "requirementId",
          "type": "uint256"
        }
      ],
      "name": "RequirementUpdated",
      "type": "event"
    },
    {
      "inputs": [
        {
          "internalType": "address",
          "name": "",
          "type": "address"
        }
      ],
      "name": "complianceOfficers",
      "outputs": [
        {
          "internalType": "bool",
          "name": "",
          "type": "bool"
        }
      ],
      "stateMutability": "view",
      "type": "function"
    },
    {
      "inputs": [
        {
          "internalType": "string",
          "name": "name",
          "type": "string"
        },
        {
          "internalType": "bool",
          "name": "requireIdentity",
          "type": "bool"
        },
        {
          "internalType": "bool",
          "name": "requirePolicyPass",
          "type": "bool"
        },
        {
          "internalType": "uint256",
          "name": "requiredPolicyId",
          "type": "uint256"
        },
        {
          "internalType": "uint64",
          "name": "validityPeriod",
          "type": "uint64"
        }
      ],
      "name": "createRequirement",
      "outputs": [
        {
          "internalType": "uint256",
          "name": "",
          "type": "uint256"
        }
      ],
      "stateMutability": "nonpayable",
      "type": "function"
    },
    {
      "inputs": [
        {
          "internalType": "address",
          "name": "user",
          "type": "address"
        },
        {
          "internalType": "uint256",
          "name": "requirementId",
          "type": "uint256"
        }
      ],
      "name": "getAttestationMetadata",
      "outputs": [
        {
          "internalType": "uint64",
          "name": "issuedAt",
          "type": "uint64"
        },
        {
          "internalType": "uint64",
          "name": "expiresAt",
          "type": "uint64"
        },
        {
          "internalType": "bool",
          "name": "isValid",
          "type": "bool"
        }
      ],
      "stateMutability": "view",
      "type": "function"
    },
    {
      "inputs": [
        {
          "internalType": "uint256",
          "name": "requirementId",
          "type": "uint256"
        }
      ],
      "name": "getRequirement",
      "outputs": [
        {
          "components": [
            {
              "internalType": "string",
              "name": "name",
              "type": "string"
            },
            {
              "internalType": "bool",
              "name": "requireIdentity",
              "type": "bool"
            },
            {
              "internalType": "bool",
              "name": "requirePolicyPass",
              "type": "bool"
            },
            {
              "internalType": "uint256",
              "name": "requiredPolicyId",
              "type": "uint256"
            },
            {
              "internalType": "uint64",
              "name": "validityPeriod",
              "type": "uint64"
            },
            {
              "internalType": "bool",
              "name": "active",
              "type": "bool"
            }
          ],
          "internalType": "struct ComplianceVerifier.ComplianceRequirement",
          "name": "",
          "type": "tuple"
        }
      ],
      "stateMutability": "view",
      "type": "function"
    },
    {
      "inputs": [
        {
          "internalType": "address",
          "name": "user",
          "type": "address"
        },
        {
          "internalType": "uint256",
          "name": "requirementId",
          "type": "uint256"
        }
      ],
      "name": "hasValidAttestation",
      "outputs": [
        {
          "internalType": "bool",
          "name": "",
          "type": "bool"
        }
      ],
      "stateMutability": "view",
      "type": "function"
    },
    {
      "inputs": [],
      "name": "identityRegistry",
      "outputs": [
        {
          "internalType": "contract IIdentityRegistry",
          "name": "",
          "type": "address"
        }
      ],
      "stateMutability": "view",
      "type": "function"
    },
    {
      "inputs": [],
      "name": "owner",
      "outputs": [
        {
          "internalType": "address",
          "name": "",
          "type": "address"
        }
      ],
      "stateMutability": "view",
      "type": "function"
    },
    {
      "inputs": [],
      "name": "policyEngine",
      "outputs": [
        {
          "internalType": "contract IPolicyEngine",
          "name": "",
          "type": "address"
        }
      ],
      "stateMutability": "view",
      "type": "function"
    },
    {
      "inputs": [],
      "name": "protocolId",
      "outputs": [
        {
          "internalType": "uint256",
          "name": "",
          "type": "uint256"
        }
      ],
      "stateMutability": "pure",
      "type": "function"
    },
    {
      "inputs": [],
      "name": "renounceOwnership",
      "outputs": [],
      "stateMutability": "nonpayable",
      "type": "function"
    },
    {
      "inputs": [
        {
          "internalType": "uint256",
          "name": "requirementId",
          "type": "uint256"
        }
      ],
      "name": "requestAttestation",
      "outputs": [],
      "stateMutability": "nonpayable",
      "type": "function"
    },
    {
      "inputs": [],
      "name": "requirementCounter",
      "outputs": [
        {
          "internalType": "uint256",
          "name": "",
          "type": "uint256"
        }
      ],
      "stateMutability": "view",
      "type": "function"
    },
    {
      "inputs": [
        {
          "internalType": "uint256",
          "name": "",
          "type": "uint256"
        }
      ],
      "name": "requirements",
      "outputs": [
        {
          "internalType": "string",
          "name": "name",
          "type": "string"
        },
        {
          "internalType": "bool",
          "name": "requireIdentity",
          "type": "bool"
        },
        {
          "internalType": "bool",
          "name": "requirePolicyPass",
          "type": "bool"
        },
        {
          "internalType": "uint256",
          "name": "requiredPolicyId",
          "type": "uint256"
        },
        {
          "internalType": "uint64",
          "name": "validityPeriod",
          "type": "uint64"
        },
        {
          "internalType": "bool",
          "name": "active",
          "type": "bool"
        }
      ],
      "stateMutability": "view",
      "type": "function"
    },
    {
      "inputs": [
        {
          "internalType": "address",
          "name": "user",
          "type": "address"
        },
        {
          "internalType": "uint256",
          "name": "requirementId",
          "type": "uint256"
        }
      ],
      "name": "revokeAttestation",
      "outputs": [],
      "stateMutability": "nonpayable",
      "type": "function"
    },
    {
      "inputs": [
        {
          "internalType": "address",
          "name": "officer",
          "type": "address"
        },
        {
          "internalType": "bool",
          "name": "authorized",
          "type": "bool"
        }
      ],
      "name": "setComplianceOfficer",
      "outputs": [],
      "stateMutability": "nonpayable",
      "type": "function"
    },
    {
      "inputs": [
        {
          "internalType": "uint256",
          "name": "requirementId",
          "type": "uint256"
        },
        {
          "internalType": "bool",
          "name": "active",
          "type": "bool"
        }
      ],
      "name": "setRequirementStatus",
      "outputs": [],
      "stateMutability": "nonpayable",
      "type": "function"
    },
    {
      "inputs": [],
      "name": "totalAttestations",
      "outputs": [
        {
          "internalType": "uint256",
          "name": "",
          "type": "uint256"
        }
      ],
      "stateMutability": "view",
      "type": "function"
    },
    {
      "inputs": [
        {
          "internalType": "address",
          "name": "newOwner",
          "type": "address"
        }
      ],
      "name": "transferOwnership",
      "outputs": [],
      "stateMutability": "nonpayable",
      "type": "function"
    },
    {
      "inputs": [
        {
          "internalType": "address",
          "name": "_identityRegistry",
          "type": "address"
        },
        {
          "internalType": "address",
          "name": "_policyEngine",
          "type": "address"
        }
      ],
      "name": "updateRegistries",
      "outputs": [],
      "stateMutability": "nonpayable",
      "type": "function"
    }
  ],
  "bytecode": "0x6080604052346102ba57604051601f61143238819003918201601f19168301916001600160401b038311848410176102be5780849260409485528339810103126102ba576100586020610051836102f1565b92016102f1565b5f60606100636102d2565b8281528260208201528260408201520152731364cbbf2cdf5032c47d8226a6f6fbd2afcdacac60606100936102d2565b73687820221192c5b662b25367f70076a37bc79b6c815273848b0066793bcc60346da1f49049357399b8d595602082015273a02cda4ca3a71d7c46997716f4283aa851c288126040820152015273687820221192c5b662b25367f70076a37bc79b6c60018060a01b03195f5160206114125f395f51905f525416175f5160206114125f395f51905f525573848b0066793bcc60346da1f49049357399b8d59560018060a01b03195f5160206113d25f395f51905f525416175f5160206113d25f395f51905f525573a02cda4ca3a71d7c46997716f4283aa851c2881260018060a01b03195f5160206113f25f395f51905f525416175f5160206113f25f395f51905f5255731364cbbf2cdf5032c47d8226a6f6fbd2afcdacac60018060a01b03195f5160206113b25f395f51905f525416175f5160206113b25f395f51905f525533156102a7575f8054336001600160a01b0319821681178355604051949290916001600160a01b0316907f8be0079c531659141344cd1fd0a4f28419497f9722a3daafe3b4186f6b6457e09080a3600180556001600160a01b031680158015610296575b6102875760018060a01b0319600254161760025560018060a01b031660018060a01b03196003541617600355335f52600760205260405f20600160ff198254161790556110ac90816103068239f35b630187b16b60e01b5f5260045ffd5b506001600160a01b03821615610238565b631e4fbdf760e01b5f525f60045260245ffd5b5f80fd5b634e487b7160e01b5f52604160045260245ffd5b60405190608082016001600160401b038111838210176102be57604052565b51906001600160a01b03821682036102ba5756fe6080806040526004361015610012575f80fd5b5f3560e01c908163134e18f414610de2575080632b624b9a14610a715780632fa996bc14610a5457806342b97fc8146109d157806360485742146109b457806360b6e147146109375780636c9810851461061d578063715018a6146105c65780637575ba58146104ff5780638da5cb5b146104d85780638f0176e71461049b578063927399a514610473578063a25a8f23146103e6578063b71269491461034e578063b757ce0e146102de578063b938ebb4146102ad578063c51577db14610192578063da1f12ab146101765763f2fde38b146100ed575f80fd5b3461017257602036600319011261017257610106610e14565b61010e610fd5565b6001600160a01b0316801561015f575f80546001600160a01b03198116831782556001600160a01b0316907f8be0079c531659141344cd1fd0a4f28419497f9722a3daafe3b4186f6b6457e09080a3005b631e4fbdf760e01b5f525f60045260245ffd5b5f80fd5b34610172575f3660031901126101725760206040516127118152f35b34610172576020366003190112610172576004355f60a06040516101b581610e2a565b60608152826020820152826040820152826060820152826080820152015260065481101561029e575f52600560205261027460405f20604051906101f882610e2a565b61020181610e9e565b82526001810154906001600160401b03602084019260ff81161515845260ff604086019160081c16151581526003600284015493606087019485520154926080860191838516835260ff60a088019560401c1615158552604051978897602089525160c060208a015260e0890190610f3e565b9551151560408801525115156060870152516080860152511660a084015251151560c08301520390f35b6327c97a1360e21b5f5260045ffd5b346101725760403660031901126101725760206102d46102cb610e14565b60243590610f88565b6040519015158152f35b34610172576040366003190112610172576001600160a01b036102ff610e14565b165f52600460205260405f206024355f526020526060600260405f20015460ff604051916001600160401b03811683526001600160401b038160401c16602084015260801c1615156040820152f35b3461017257604036600319011261017257610367610e14565b6024356001600160a01b038116919082900361017257610385610fd5565b6001600160a01b0316801580156103de575b6103cf576bffffffffffffffffffffffff60a01b60025416176002556bffffffffffffffffffffffff60a01b60035416176003555f80f35b630187b16b60e01b5f5260045ffd5b508115610397565b34610172576020366003190112610172576004355f52600560205261043a60405f2061041181610e9e565b9060ff60018201549160036002820154910154908260405196879660c0885260c0880190610f3e565b948181161515602088015260081c161515604086015260608501526001600160401b038116608085015260401c16151560a08301520390f35b34610172575f366003190112610172576003546040516001600160a01b039091168152602090f35b34610172576020366003190112610172576001600160a01b036104bc610e14565b165f526007602052602060ff60405f2054166040519015158152f35b34610172575f366003190112610172575f546040516001600160a01b039091168152602090f35b3461017257604036600319011261017257610518610e14565b60243590335f52600760205260ff60405f205416156105b75760018060a01b0316805f52600460205260405f20825f5260205260ff600260405f20015460801c16156105a857805f52600460205260405f20825f52602052600260405f200160ff60801b1981541690557f561488a62f3255db899d7ef5c4a3de0bb4ed575e299cc07dcf502f899ae5eaee5f80a3005b6326190c7560e11b5f5260045ffd5b630c50ca9b60e11b5f5260045ffd5b34610172575f366003190112610172576105de610fd5565b5f80546001600160a01b0319811682556001600160a01b03167f8be0079c531659141344cd1fd0a4f28419497f9722a3daafe3b4186f6b6457e08280a3005b346101725760a0366003190112610172576004356001600160401b03811161017257366023820112156101725780600401356001600160401b0381116109235760405191610675601f8301601f191660200184610e45565b818352366024838301011161017257815f92602460209301838601378301015261069d610e05565b906044359081151580920361017257608435906001600160401b038216809203610172576106c9610fd5565b600654916106d683610f7a565b6006556040516106e581610e2a565b82815260208101951515865260408101948552606081019060643582526080810192835260a081019160018352855f52600560205260405f209151978851976001600160401b0389116109235761073c8454610e66565b99601f8b116108de575b60209a508a90601f8b116001146108425761081a9561082c98957ffc77f12b9b7cce43c41970448eaf893c431ef76d9eccf118315a8a90919d209e9a98956001600160401b03958e8e9f88976003975f92610837575b50508160011b915f1990881b1c19161784555b6107cc6001850192511515839060ff801983541691151516179055565b51151561ff0082549160081b169061ff00191617905551600282015501935116166001600160401b031983541617825551151560ff60401b825491151560401b169060ff60401b1916179055565b60405191829187835287830190610f3e565b0390a2604051908152f35b015190505f8061079c565b90601f198b1691865f52815f20925f5b8181106108c75750957ffc77f12b9b7cce43c41970448eaf893c431ef76d9eccf118315a8a90919d209e9a98956001600160401b039560018e9f889760039761082c9f9c978361081a9f99106108b0575b505050811b0184556107af565b01515f19838a1b60f8161c191690555f80806108a3565b92938e600181928786015181550195019301610852565b845f5260205f20601f8b0160051c81019b60208c10610919575b601f0160051c019a5b8b811061090e5750610746565b5f8155600101610901565b909b508b906108f8565b634e487b7160e01b5f52604160045260245ffd5b3461017257604036600319011261017257610950610e14565b7f893887e0a2bf46477fe0b0939aefe5793d705d842e3e03f8c19c1ced2cb0b955602061097b610e05565b92610984610fd5565b6001600160a01b03165f8181526007835260409020805460ff191660ff86151516179055926040519015158152a2005b34610172575f366003190112610172576020600854604051908152f35b34610172576040366003190112610172576004356109ed610e05565b6109f5610fd5565b60065482101561029e57610a2e90825f526005602052600360405f20019060ff60401b825491151560401b169060ff60401b1916179055565b7f0df20bcf48abb12fff22add500b1f6a0fa9d167ed003c5d41546187d993a349e5f80a2005b34610172575f366003190112610172576020600654604051908152f35b3461017257602036600319011261017257600435600260015414610dd357600260015560065481101561029e57805f52600560205260405f20600381019060ff825460401c1615610dc457600181015460ff811680610d63575b610d545760081c60ff16610cd1575b7f9e7b61f58c47dc699ac88507c4f5bb9f121c03808c5676a8078fe583e464970154604051639cd07acb60e01b815260016004820152600260248201529190602090839060449082905f906001600160a01b03165af1918215610cc6575f92610c92575b50610b493083610ffb565b610b533383610ffb565b6001600160401b038042169354168301906001600160401b038211610c7e5760020154916040519260a084018481106001600160401b038211176109235760405283526020830190815260408301918483526001600160401b038060028160608801941696878552608081019560018752335f52600460205260405f208b5f5260205260405f209151825551600182015501945116166001600160401b03198454161783555167ffffffffffffffff60401b83549160401b169067ffffffffffffffff60401b191617825551151581549060ff60801b9060801b169060ff60801b1916179055610c44600854610f7a565b60085560405191825260208201527ff38095ef2f31aee07a697a66d175e478e312df6a672360ee123ad258f53f32a360403392a360018055005b634e487b7160e01b5f52601160045260245ffd5b9091506020813d602011610cbe575b81610cae60209383610e45565b8101031261017257519084610b3e565b3d9150610ca1565b6040513d5f823e3d90fd5b60018060a01b036003541660206002830154604460405180948193635cfd265360e11b835233600484015260248301525afa908115610cc6575f91610d25575b50610ada57630ac20ca960e31b5f5260045ffd5b610d47915060203d602011610d4d575b610d3f8183610e45565b810190610f62565b84610d11565b503d610d35565b631764ee2560e31b5f5260045ffd5b5060025460405163237f1a2160e01b815233600482015290602090829060249082906001600160a01b03165afa908115610cc6575f91610da5575b5015610acb565b610dbe915060203d602011610d4d57610d3f8183610e45565b85610d9e565b63709ce0cf60e11b5f5260045ffd5b633ee5aeb560e01b5f5260045ffd5b34610172575f366003190112610172576002546001600160a01b03168152602090f35b60243590811515820361017257565b600435906001600160a01b038216820361017257565b60c081019081106001600160401b0382111761092357604052565b90601f801991011681019081106001600160401b0382111761092357604052565b90600182811c92168015610e94575b6020831014610e8057565b634e487b7160e01b5f52602260045260245ffd5b91607f1691610e75565b9060405191825f825492610eb184610e66565b8084529360018116908115610f1c5750600114610ed8575b50610ed692500383610e45565b565b90505f9291925260205f20905f915b818310610f00575050906020610ed6928201015f610ec9565b6020919350806001915483858901015201910190918492610ee7565b905060209250610ed694915060ff191682840152151560051b8201015f610ec9565b805180835260209291819084018484015e5f828201840152601f01601f1916010190565b90816020910312610172575180151581036101725790565b5f198114610c7e5760010190565b60018060a01b03165f52600460205260405f20905f52602052600260405f20015460ff8160801c1615610fd05760401c6001600160401b03164211610fcc57600190565b5f90565b505f90565b5f546001600160a01b03163303610fe857565b63118cdaa760e01b5f523360045260245ffd5b7f9e7b61f58c47dc699ac88507c4f5bb9f121c03808c5676a8078fe583e4649700546001600160a01b031691823b1561017257604051635ca4b5b160e11b815260048101929092526001600160a01b03166024820152905f908290604490829084905af18015610cc65761106c5750565b5f610ed691610e4556fea264697066735822122017969bd252b6f0870ea727b4c6035083065bbb2db21dca8e09cc07840a4e03da64736f6c634300081c00339e7b61f58c47dc699ac88507c4f5bb9f121c03808c5676a8078fe583e46497039e7b61f58c47dc699ac88507c4f5bb9f121c03808c5676a8078fe583e46497019e7b61f58c47dc699ac88507c4f5bb9f121c03808c5676a8078fe583e46497029e7b61f58c47dc699ac88507c4f5bb9f121c03808c5676a8078fe583e4649700",
  "linkReferences": {},
  "deployedLinkReferences": {}
}