{
  "_format": "hh-sol-artifact-1",
  "contractName": "PolicyEngine",
  "sourceName": "src/policy/PolicyEngine.sol",
  "abi": [
    {
      "inputs": [
        {
          "internalType": "address",
          "name": "_identityRegistry",
          "type": "address"
        }
      ],
      "stateMutability": "nonpayable",
      "type": "constructor"
    },
    {
      "inputs": [],
      "name": "IdentityRegistryNotSet",
      "type": "error"
    },
    {
      "inputs": [],
      "name": "InvalidPolicy",
      "type": "error"
    },
    {
      "inputs": [],
      "name": "InvalidProof",
      "type": "error"
    },
    {
      "inputs": [],
      "name": "NoIdentity",
      "type": "error"
    },
    {
      "inputs": [],
      "name": "NoResult",
      "type": "error"
    },
    {
      "inputs": [
        {
          "internalType": "address",
          "name": "owner",
          "type": "address"
        }
      ],
      "name": "OwnableInvalidOwner",
      "type": "error"
    },
    {
      "inputs": [
        {
          "internalType": "address",
          "name": "account",
          "type": "address"
        }
      ],
      "name": "OwnableUnauthorizedAccount",
      "type": "error"
    },
    {
      "inputs": [],
      "name": "PolicyInactive",
      "type": "error"
    },
    {
      "inputs": [],
      "name": "ReentrancyGuardReentrantCall",
      "type": "error"
    },
    {
      "anonymous": false,
      "inputs": [
        {
          "indexed": true,
          "internalType": "address",
          "name": "previousOwner",
          "type": "address"
        },
        {
          "indexed": true,
          "internalType": "address",
          "name": "newOwner",
          "type": "address"
        }
      ],
      "name": "OwnershipTransferred",
      "type": "event"
    },
    {
      "anonymous": false,
      "inputs": [
        {
          "indexed": true,
          "internalType": "uint256",
          "name": "policyId",
          "type": "uint256"
        },
        {
          "indexed": false,
          "internalType": "string",
          "name": "name",
          "type": "string"
        }
      ],
      "name": "PolicyCreated",
      "type": "event"
    },
    {
      "anonymous": false,
      "inputs": [
        {
          "indexed": true,
          "internalType": "address",
          "name": "user",
          "type": "address"
        },
        {
          "indexed": true,
          "internalType": "uint256",
          "name": "policyId",
          "type": "uint256"
        },
        {
          "indexed": false,
          "internalType": "uint64",
          "name": "timestamp",
          "type": "uint64"
        }
      ],
      "name": "PolicyEvaluated",
      "type": "event"
    },
    {
      "anonymous": false,
      "inputs": [
        {
          "indexed": true,
          "internalType": "uint256",
          "name": "policyId",
          "type": "uint256"
        }
      ],
      "name": "PolicyUpdated",
      "type": "event"
    },
    {
      "anonymous": false,
      "inputs": [
        {
          "indexed": true,
          "internalType": "address",
          "name": "user",
          "type": "address"
        },
        {
          "indexed": true,
          "internalType": "uint256",
          "name": "policyId",
          "type": "uint256"
        },
        {
          "indexed": false,
          "internalType": "uint8",
          "name": "result",
          "type": "uint8"
        }
      ],
      "name": "ResultClaimed",
      "type": "event"
    },
    {
      "inputs": [
        {
          "internalType": "uint256",
          "name": "policyId",
          "type": "uint256"
        },
        {
          "internalType": "uint8",
          "name": "decryptedResult",
          "type": "uint8"
        }
      ],
      "name": "claimResult",
      "outputs": [
        {
          "internalType": "bool",
          "name": "",
          "type": "bool"
        }
      ],
      "stateMutability": "nonpayable",
      "type": "function"
    },
    {
      "inputs": [
        {
          "internalType": "string",
          "name": "name",
          "type": "string"
        },
        {
          "internalType": "uint8",
          "name": "minAge",
          "type": "uint8"
        },
        {
          "internalType": "uint8",
          "name": "maxAge",
          "type": "uint8"
        },
        {
          "internalType": "uint8",
          "name": "minKYCLevel",
          "type": "uint8"
        },
        {
          "internalType": "uint8",
          "name": "maxRiskScore",
          "type": "uint8"
        },
        {
          "internalType": "bool",
          "name": "requireAccredited",
          "type": "bool"
        },
        {
          "internalType": "bool",
          "name": "allowPEP",
          "type": "bool"
        },
        {
          "internalType": "bool",
          "name": "allowSanctioned",
          "type": "bool"
        }
      ],
      "name": "createPolicy",
      "outputs": [
        {
          "internalType": "uint256",
          "name": "",
          "type": "uint256"
        }
      ],
      "stateMutability": "nonpayable",
      "type": "function"
    },
    {
      "inputs": [
        {
          "internalType": "uint256",
          "name": "policyId",
          "type": "uint256"
        }
      ],
      "name": "evaluatePolicy",
      "outputs": [],
      "stateMutability": "nonpayable",
      "type": "function"
    },
    {
      "inputs": [
        {
          "internalType": "uint256",
          "name": "policyId",
          "type": "uint256"
        }
      ],
      "name": "getPolicy",
      "outputs": [
        {
          "components": [
            {
              "internalType": "string",
              "name": "name",
              "type": "string"
            },
            {
              "internalType": "uint8",
              "name": "minAge",
              "type": "uint8"
            },
            {
              "internalType": "uint8",
              "name": "maxAge",
              "type": "uint8"
            },
            {
              "internalType": "uint8",
              "name": "minKYCLevel",
              "type": "uint8"
            },
            {
              "internalType": "uint8",
              "name": "maxRiskScore",
              "type": "uint8"
            },
            {
              "internalType": "bool",
              "name": "requireAccredited",
              "type": "bool"
            },
            {
              "internalType": "bool",
              "name": "allowPEP",
              "type": "bool"
            },
            {
              "internalType": "bool",
              "name": "allowSanctioned",
              "type": "bool"
            },
            {
              "internalType": "uint256",
              "name": "createdAt",
              "type": "uint256"
            },
            {
              "internalType": "bool",
              "name": "active",
              "type": "bool"
            }
          ],
          "internalType": "struct PolicyEngine.Policy",
          "name": "",
          "type": "tuple"
        }
      ],
      "stateMutability": "view",
      "type": "function"
    },
    {
      "inputs": [
        {
          "internalType": "address",
          "name": "user",
          "type": "address"
        },
        {
          "internalType": "uint256",
          "name": "policyId",
          "type": "uint256"
        }
      ],
      "name": "getResultMetadata",
      "outputs": [
        {
          "internalType": "uint64",
          "name": "evaluatedAt",
          "type": "uint64"
        },
        {
          "internalType": "bool",
          "name": "exists",
          "type": "bool"
        }
      ],
      "stateMutability": "view",
      "type": "function"
    },
    {
      "inputs": [
        {
          "internalType": "address",
          "name": "user",
          "type": "address"
        },
        {
          "internalType": "uint256",
          "name": "policyId",
          "type": "uint256"
        }
      ],
      "name": "hasResult",
      "outputs": [
        {
          "internalType": "bool",
          "name": "",
          "type": "bool"
        }
      ],
      "stateMutability": "view",
      "type": "function"
    },
    {
      "inputs": [],
      "name": "identityRegistry",
      "outputs": [
        {
          "internalType": "contract IIdentityRegistry",
          "name": "",
          "type": "address"
        }
      ],
      "stateMutability": "view",
      "type": "function"
    },
    {
      "inputs": [
        {
          "internalType": "address",
          "name": "",
          "type": "address"
        }
      ],
      "name": "lastEvaluatedPolicy",
      "outputs": [
        {
          "internalType": "uint256",
          "name": "",
          "type": "uint256"
        }
      ],
      "stateMutability": "view",
      "type": "function"
    },
    {
      "inputs": [],
      "name": "owner",
      "outputs": [
        {
          "internalType": "address",
          "name": "",
          "type": "address"
        }
      ],
      "stateMutability": "view",
      "type": "function"
    },
    {
      "inputs": [
        {
          "internalType": "uint256",
          "name": "",
          "type": "uint256"
        }
      ],
      "name": "policies",
      "outputs": [
        {
          "internalType": "string",
          "name": "name",
          "type": "string"
        },
        {
          "internalType": "uint8",
          "name": "minAge",
          "type": "uint8"
        },
        {
          "internalType": "uint8",
          "name": "maxAge",
          "type": "uint8"
        },
        {
          "internalType": "uint8",
          "name": "minKYCLevel",
          "type": "uint8"
        },
        {
          "internalType": "uint8",
          "name": "maxRiskScore",
          "type": "uint8"
        },
        {
          "internalType": "bool",
          "name": "requireAccredited",
          "type": "bool"
        },
        {
          "internalType": "bool",
          "name": "allowPEP",
          "type": "bool"
        },
        {
          "internalType": "bool",
          "name": "allowSanctioned",
          "type": "bool"
        },
        {
          "internalType": "uint256",
          "name": "createdAt",
          "type": "uint256"
        },
        {
          "internalType": "bool",
          "name": "active",
          "type": "bool"
        }
      ],
      "stateMutability": "view",
      "type": "function"
    },
    {
      "inputs": [],
      "name": "policyCounter",
      "outputs": [
        {
          "internalType": "uint256",
          "name": "",
          "type": "uint256"
        }
      ],
      "stateMutability": "view",
      "type": "function"
    },
    {
      "inputs": [],
      "name": "protocolId",
      "outputs": [
        {
          "internalType": "uint256",
          "name": "",
          "type": "uint256"
        }
      ],
      "stateMutability": "pure",
      "type": "function"
    },
    {
      "inputs": [],
      "name": "renounceOwnership",
      "outputs": [],
      "stateMutability": "nonpayable",
      "type": "function"
    },
    {
      "inputs": [
        {
          "internalType": "address",
          "name": "_identityRegistry",
          "type": "address"
        }
      ],
      "name": "setIdentityRegistry",
      "outputs": [],
      "stateMutability": "nonpayable",
      "type": "function"
    },
    {
      "inputs": [
        {
          "internalType": "uint256",
          "name": "policyId",
          "type": "uint256"
        },
        {
          "internalType": "bool",
          "name": "active",
          "type": "bool"
        }
      ],
      "name": "setPolicyStatus",
      "outputs": [],
      "stateMutability": "nonpayable",
      "type": "function"
    },
    {
      "inputs": [
        {
          "internalType": "address",
          "name": "newOwner",
          "type": "address"
        }
      ],
      "name": "transferOwnership",
      "outputs": [],
      "stateMutability": "nonpayable",
      "type": "function"
    }
  ],
  "bytecode": "0x60806040523461026d57604051601f61175238819003918201601f19168301916001600160401b038311848410176102715780849260209460405283398101031261026d57516001600160a01b0381169081900361026d575f6060610062610285565b8281528260208201528260408201520152731364cbbf2cdf5032c47d8226a6f6fbd2afcdacac6060610092610285565b73687820221192c5b662b25367f70076a37bc79b6c815273848b0066793bcc60346da1f49049357399b8d595602082015273a02cda4ca3a71d7c46997716f4283aa851c288126040820152015273687820221192c5b662b25367f70076a37bc79b6c60018060a01b03195f5160206117325f395f51905f525416175f5160206117325f395f51905f525573848b0066793bcc60346da1f49049357399b8d59560018060a01b03195f5160206116f25f395f51905f525416175f5160206116f25f395f51905f525573a02cda4ca3a71d7c46997716f4283aa851c2881260018060a01b03195f5160206117125f395f51905f525416175f5160206117125f395f51905f5255731364cbbf2cdf5032c47d8226a6f6fbd2afcdacac60018060a01b03195f5160206116d25f395f51905f525416175f5160206116d25f395f51905f5255331561025a575f8054336001600160a01b0319821681178355604051939290916001600160a01b0316907f8be0079c531659141344cd1fd0a4f28419497f9722a3daafe3b4186f6b6457e09080a360018055801561024b57600280546001600160a01b03191691909117905561142d90816102a58239f35b63af1d448960e01b5f5260045ffd5b631e4fbdf760e01b5f525f60045260245ffd5b5f80fd5b634e487b7160e01b5f52604160045260245ffd5b60405190608082016001600160401b038111838210176102715760405256fe6080806040526004361015610012575f80fd5b5f3560e01c9081630163263c14610f3057508063134e18f414610f085780632b07fce314610d8657806349fc81d1146109e55780634b46ad0a14610986578063592eb005146108da578063715018a6146108835780638da5cb5b1461085c578063a650f2c814610379578063b9fa4ca61461032d578063bef98d9d146102a2578063cbf3f86114610247578063d3e894831461018e578063d52c1bea14610171578063da1f12ab146101555763f2fde38b146100cc575f80fd5b34610151576020366003190112610151576100e5610f64565b6100ed6110c5565b6001600160a01b0316801561013e575f80546001600160a01b03198116831782556001600160a01b0316907f8be0079c531659141344cd1fd0a4f28419497f9722a3daafe3b4186f6b6457e09080a3005b631e4fbdf760e01b5f525f60045260245ffd5b5f80fd5b34610151575f3660031901126101515760206040516127118152f35b34610151575f366003190112610151576020600454604051908152f35b34610151576020366003190112610151576004355f5260036020526101e660405f206101b981611025565b9060018101549060ff60036002830154920154169060ff6040519586956101408752610140870190610f7a565b938181166020870152818160081c166040870152818160101c166060870152818160181c166080870152818160201c16151560a0870152818160281c16151560c087015260301c16151560e085015261010084015215156101208301520390f35b3461015157602036600319011261015157610260610f64565b6102686110c5565b6001600160a01b03168015610293576bffffffffffffffffffffffff60a01b60025416176002555f80f35b63af1d448960e01b5f5260045ffd5b34610151576040366003190112610151576004356024358015158103610151576102ca6110c5565b60045482101561031e576102f890825f526003602052600360405f20019060ff801983541691151516179055565b7f912ce63c438aca9d2f50d1d12de5b42efbcc84ce223b08122e8c2e3c000ca1f85f80a2005b63d06b96b160e01b5f5260045ffd5b34610151576040366003190112610151576001600160a01b0361034e610f64565b165f52600560205260405f206024355f52602052602060ff600360405f200154166040519015158152f35b34610151576020366003190112610151576004356103956110eb565b60045481101561031e57805f52600360205260ff600360405f200154161561084d5760025460405163237f1a2160e01b81523360048201526001600160a01b0390911690602081602481855afa908115610703575f91610812575b501561080357815f526003602052602461010060405f20926040519283809263306e00cf60e01b82523360048301525afa8015610703575f915f915f915f916107b0575b5060015f950161044860ff8254168661110b565b9460ff825460081c1660ff8114881461079a57505061048c61047d61046d60016112b6565b955b60ff845460101c169061110b565b9360ff835460181c16906111b5565b918015610788575b5f5160206113d85f395f51905f525460405163f77f3f1d60e01b8152600481019290925260016024830152600160f81b6044830152909660209188916064918391906001600160a01b03165af1958615610703575f9661074c575b50916105146105149261051a9760ff61051497965460201c165f146107415790611230565b90611230565b5f5160206113d85f395f51905f5254604051639cd07acb60e01b8152600160048201526002602482015290602090829060449082905f906001600160a01b03165af18015610703575f9061070e575b602091506064610577611309565b5f5160206113d85f395f51905f5254604051637702dcff60e01b8152600481019690965260248601939093526044850152839182905f906001600160a01b03165af1908115610703575f916106d1575b5067ffffffffffffffff421690604051906080820182811067ffffffffffffffff8211176106bd5761067d9261066c9160405282815260036020820186815260408301888152606084019160018352335f52600560205260405f208a5f5260205260405f209451855567ffffffffffffffff6001860191511667ffffffffffffffff1982541617905551600284015551151591019060ff801983541691151516179055565b610676338261135c565b309061135c565b335f5260066020528160405f20556040519081527fb230490152ad71db1b7adb2f3a490aac2fd41b07565e9052f411ce31261bc8e660203392a360018055005b634e487b7160e01b5f52604160045260245ffd5b90506020813d6020116106fb575b816106ec60209383610fbb565b810103126101515751826105c7565b3d91506106df565b6040513d5f823e3d90fd5b506020813d602011610739575b8161072860209383610fbb565b810103126101515760209051610569565b3d915061071b565b5061051460016112b6565b95509092916020863d602011610780575b8161076a60209383610fbb565b81010312610151579451949192906105146104ef565b3d915061075d565b506020610793611309565b9050610494565b6107aa61047d9161048c936111b5565b9561046f565b949350505050610100823d82116107fb575b816107d06101009383610fbb565b8101031261015157602082015160a083015160c084015160e090940151929391929091906001610434565b3d91506107c2565b631764ee2560e31b5f5260045ffd5b90506020813d602011610845575b8161082d60209383610fbb565b810103126101515751801515810361015157836103f0565b3d9150610820565b631ea4813d60e21b5f5260045ffd5b34610151575f366003190112610151575f546040516001600160a01b039091168152602090f35b34610151575f3660031901126101515761089b6110c5565b5f80546001600160a01b0319811682556001600160a01b03167f8be0079c531659141344cd1fd0a4f28419497f9722a3daafe3b4186f6b6457e08280a3005b34610151576040366003190112610151576004356108f6610fdd565b6108fe6110eb565b335f52600560205260405f20825f5260205260ff600360405f20015416156109775760ff1660018111610968576020916040518281527f222e254f586050016bfc61fae1e9692e52ae6f0d415208afc700debffcc6ed99843392a360018055600160405191148152f35b6309bde33960e01b5f5260045ffd5b630841ad7d60e11b5f5260045ffd5b34610151576040366003190112610151576001600160a01b036109a7610f64565b165f52600560205260405f206024355f526020526040805f2060ff600367ffffffffffffffff60018401541692015416825191825215156020820152f35b34610151576101003660031901126101515760043567ffffffffffffffff8111610151573660238201121561015157806004013567ffffffffffffffff81116106bd5760405191610a40601f8301601f191660200184610fbb565b818352366024838301011161015157815f926024602093018386013783010152610a68610fdd565b6044359060ff82168092036101515760643560ff81168091036101515760843560ff81168091036101515760a4358015158091036101515760c435918215158093036101515760e4359384151580950361015157610ac46110c5565b600454965f198814610d72576001880160045560ff60405197610ae689610f9e565b8a895216602088015260408701526060860152608085015260a084015260c083015260e0820152426101008201526001610120820152815f52600360205260405f2090805180519067ffffffffffffffff82116106bd57610b478454610fed565b601f8111610d2d575b5091849391602096938790601f8311600114610c98576101207f80968e0cf0f9fbad1f441d6bcbc63de0fe2c2a21dcbd37b22b46e61c7695031f969484610c7095610c8298956003955f92610c8d575b50508160011b915f1990861b1c19161784555b6001840160ff8c83015116815465ff000000000061ff00604086015160081b169164ff0000000062ff0000606088015160101b169363ff000000608089015160181b1660a0890151151560201b9360c08a0151151560281b9666ff00000000000060e08c0151151560301b169866ff000000000000199488199387199263ff000000199162ffffff1916171617161716171691161791161717905561010081015160028501550151151591019060ff801983541691151516179055565b60405191829187835287830190610f7a565b0390a2604051908152f35b015190508d80610ba0565b90845f52805f20915f5b601f1985168110610d1357507f80968e0cf0f9fbad1f441d6bcbc63de0fe2c2a21dcbd37b22b46e61c7695031f9694600185610c82989560039561012095610c7099601f19811610610cfc575b505050811b018455610bb3565b01515f1983881b60f8161c191690558d8080610cef565b818301518455899850600190930192918a01918a01610ca2565b845f5260205f20601f840160051c81019160208510610d68575b601f0160051c01905b818110610d5d5750610b50565b5f8155600101610d50565b9091508190610d47565b634e487b7160e01b5f52601160045260245ffd5b34610151576020366003190112610151576004355f610120604051610daa81610f9e565b606081528260208201528260408201528260608201528260808201528260a08201528260c08201528260e082015282610100820152015260045481101561031e575f52600360205260405f20604051610e0281610f9e565b610e0b82611025565b81526001820154602082019060ff8116825260408301938160081c60ff16855260608401918060101c60ff168352608085018160181c60ff16815260a086018260201c60ff161515815260c08701918360281c60ff161515835260e088019360301c60ff161515845260028501549461010089019586526003015460ff169561012089019615158752604051998a9960208b525160208b0161014090526101608b01610eb691610f7a565b985160ff1660408b01525160ff1660608a01525160ff1660808901525160ff1660a088015251151560c087015251151560e0860152511515610100850152516101208401525115156101408301520390f35b34610151575f366003190112610151576002546040516001600160a01b039091168152602090f35b34610151576020366003190112610151576020906001600160a01b03610f54610f64565b165f526006825260405f20548152f35b600435906001600160a01b038216820361015157565b805180835260209291819084018484015e5f828201840152601f01601f1916010190565b610140810190811067ffffffffffffffff8211176106bd57604052565b90601f8019910116810190811067ffffffffffffffff8211176106bd57604052565b6024359060ff8216820361015157565b90600182811c9216801561101b575b602083101461100757565b634e487b7160e01b5f52602260045260245ffd5b91607f1691610ffc565b9060405191825f82549261103884610fed565b80845293600181169081156110a3575060011461105f575b5061105d92500383610fbb565b565b90505f9291925260205f20905f915b81831061108757505090602061105d928201015f611050565b602091935080600191548385890101520191019091849261106e565b90506020925061105d94915060ff191682840152151560051b8201015f611050565b5f546001600160a01b031633036110d857565b63118cdaa760e01b5f523360045260245ffd5b6002600154146110fc576002600155565b633ee5aeb560e01b5f5260045ffd5b60ff9160209180156111a3575b5f5160206113d85f395f51905f5254604051631391547f60e01b81526004810192909252919093166024840152600160f81b6044840152829060649082905f906001600160a01b03165af1908115610703575f91611174575090565b90506020813d60201161119b575b8161118f60209383610fbb565b81010312610151575190565b3d9150611182565b5060646111ae611309565b9050611118565b60ff91602091801561121e575b5f5160206113d85f395f51905f5254604051631d44e90160e21b81526004810192909252919093166024840152600160f81b6044840152829060649082905f906001600160a01b03165af1908115610703575f91611174575090565b506064611229611309565b90506111c2565b9081156112a5575b8015611292575b602090606460018060a01b035f5160206113d85f395f51905f525416935f604051958694859363d99882d560e01b8552600485015260248401528160448401525af1908115610703575f91611174575090565b50602061129e5f6112b6565b905061123f565b90506112b05f6112b6565b90611238565b5f5160206113d85f395f51905f5254604051639cd07acb60e01b815260048101929092525f6024830181905260209183916044918391906001600160a01b03165af1908115610703575f91611174575090565b5f5160206113d85f395f51905f5254604051639cd07acb60e01b81525f60048201819052600260248301529091602091839160449183916001600160a01b03165af1908115610703575f91611174575090565b7f9e7b61f58c47dc699ac88507c4f5bb9f121c03808c5676a8078fe583e4649700546001600160a01b031691823b1561015157604051635ca4b5b160e11b815260048101929092526001600160a01b03166024820152905f908290604490829084905af18015610703576113cd5750565b5f61105d91610fbb56fe9e7b61f58c47dc699ac88507c4f5bb9f121c03808c5676a8078fe583e4649701a2646970667358221220d2b76f4e5487a305dad34d00102e11a538cf62bbed6e519e7e36b2895e747f3864736f6c634300081c00339e7b61f58c47dc699ac88507c4f5bb9f121c03808c5676a8078fe583e46497039e7b61f58c47dc699ac88507c4f5bb9f121c03808c5676a8078fe583e46497019e7b61f58c47dc699ac88507c4f5bb9f121c03808c5676a8078fe583e46497029e7b61f58c47dc699ac88507c4f5bb9f121c03808c5676a8078fe583e4649700",
  "linkReferences": {},
  "deployedLinkReferences": {}
}